:100000000C9407350C9438350C9438350C943835ED
:100010000C9438350C94C4D10C9438350C94383584
:100020000C944FD10C9438350C9438350C943835E9
:100030000C9438350C9438350D94C1300D942E3015
:100040000C9438350C94B49F0C9438350C94383596
:100050000C9438350C9438350C9438350D942A218D
:100060000C9438350D9447690C9438350C94383518
:100070000C9438350C9438350C9438350C9438354C
:100080000C9438350C9438350C9438350C9438353C
:100090000D9403690C9438350C9438350C9438352C
:1000A0000C9438350C9438350D949C060C943835E6
:1000B0000C9438350C9438350C9438350C9438350C
:1000C0000C9438350C9438350C9438350C942A9BA4
:1000D0000C9438350C9438350C9438350C943835EC
:1000E0000C9438359B87A68747871487E386A98AAF
:1000F000E2870C89A489FB89188A508A8FC38FC331
:1001000092C38FC392C395C398C326CC37CC4ACC35
:1001100057CC61CC92CC12CCB3CCC7CCC1CC12CCD6
:10012000CACCE7CCFBCC0DCDBF010B029901B702C5
:100130001102E70259027902790121029702210294
:1001400097022102970283015501F702BD011302B4
:10015000A502D101A70239024902BB01E5010D0246
:10016000E901130323024502E101E90285021F03AD
:100170005D014D0291025D0233029902DF018502A9
:100180004F02F1028B02C302A701AF02ED02CD02C2
:10019000D10225038B011F02710137028F01650215
:1001A0002502EB028102DD0265011D029F02A3010F
:1001B0009B01C9012B0215020F0283021D02A90136
:1001C000EF029501084AD73B3BCE016E84BCBFFDD0
:1001D000C12F3D6C74319ABD56833DDA3D00C77F17
:1001E00011BED9E4BB4C3E916BAAAABE00000080B0
:1001F0003F05A84CCDB2D44EB93836A9020C50B93F
:10020000918688083CA6AAAA2ABE000000803F0763
:10021000634236B79BD8A71A39685618AEBAAB55A1
:100220008C1D3CB7CC5763BD6DEDFD753EF6177266
:1002300031BF000000803F08000000BE9224491238
:100240003EABAAAA2ABECDCCCC4C3E00000080BE5C
:10025000ABAAAAAA3E00000000BF000000803F0039
:1002600000000000084178D3BB4387D1133D190E2D
:100270003CC3BD4282AD2B3E68EC8276BED98FE195
:10028000A93E4C80EFFFBE01C4FF7F3F000000008D
:1002900000000D949A050D94FE4C0D94FC4E0C94A8
:1002A00007C40C94FB890C948EBF0D9484230C948A
:1002B000DFC50C94E8AE0C94A1DD0D9448750D9447
:1002C000952A0C9483BE0C94F7C70D944B900C9414
:1002D0003FC40C947EB50C9414870C94E9C50C941F
:1002E0008DE20D94F6770C94E3860D940C2B0D940F
:1002F0007C050D94C0210C9428C10C94DFC90C948A
:100300000C890C9447C40D9482230C949B870D9404
:1003100073260D949F050D94DA770C94F2C10D9419
:1003200013780C94C3AC0D948B050D94BA900C9477
:1003300075DD0D9462210D9465900C9423C00C948E
:1003400046C60C94B3CC0D945D900C944ACC0D949D
:1003500081770D94A6900C94A7C60D94F74E0C943B
:1003600010B40C9426CC0D943D500D945D4B0C9420
:10037000C2B30D941C500D9477530D9464530D9497
:1003800046210C9479BE0C9455CD0D949D250D9469
:1003900031260D946F900C948DBE0C94D7B70C94AD
:1003A000C7CC0D941E530C9427BC0C9429C60D94F5
:1003B0008B4B0C94E7CC0C94D1C90C945BB80D9486
:1003C00064750D9433750C941CCA0D94DE520C9414
:1003D00018C70D9494520C940F950C9477B80C9404
:1003E00015B30C9412CC0C9403C60D94AE5E0C9411
:1003F00016C60D9450230D9486050C9437CC0C949E
:10040000FDC40C94CEAC0C943EE00D94F5240C94F9
:10041000A7BB0C94ACB40D9454210D94B0520D9420
:1004200092900D9481210D9434530D9483900C94EB
:100430000DCD0C9492C30D946B200D94C4900D942B
:10044000E8770D947E230D9440750D942D900C94B7
:1004500080B90C9456940D9479900C9481DE0C9490
:10046000FBCC0D94920B0D945C750C9417C40D94F9
:100470000D780D9408530C9493B00C94F3C50C9420
:10048000E2870C9427C40D94F4040D942F750C94FA
:10049000508A0D948A530C94B9C60D944E750D94E0
:1004A0006A750C9498C30D94F3240C942FC40D9486
:1004B000104C0D94C8210C943EC70D9456750C94A5
:1004C00061CC0D94B94B0D94A3050D9421780C9437
:1004D00092CC0D9495050C9445DE0C9474B90C9453
:1004E000F5C30C94CAC90D9490A20C94A4DE0D948B
:1004F000974F0D94AA210C94B6AC0C94FFC30D94A5
:100500001E2A0D9437900D949C900D9477750C9441
:100510009EAF0D9403050D9472750C94A6870C94F0
:1005200057CC0D9452750C94F0C30C94AEAC0D9452
:1005300080230D9460750C94C4850D9428640D94EB
:1005400055900C94D8C90D944E4C0D9429530D948C
:1005500013530D94CD5E0C94B9C50C9467B90D94EA
:1005600091770C9495C30C94C1CC0D944F4F0D947E
:100570006F210C9492B80D944A650D949F690C9468
:10058000E6C30D94DC290D9473770C9447870D9482
:1005900081050D9456A40C943CC60D94C0770C9420
:1005A000CACC0D94C6770D94FE040C946F940D94F0
:1005B000C94F0C948BAE0C94EBC30D9441900C94EA
:1005C00043AF0D94EE2B0C940FC40C9480DD0D946E
:1005D00088210D9439750D9432900D94A3770D9464
:1005E000B0900D946E750D94F8040C9473C60D9430
:1005F00099500C9479AE0C94D5DD0C9437C40C94BE
:100600001FC40D94D74C0D945E260C94A98A0C94AB
:1006100087B50C9409DE0C9409B00C946FBE0D9450
:1006200090050D94B1050D943D750C94A4890C941E
:1006300081B80C948FC30C94188A0C940CB30D944D
:1006400044750C94D0BA0C9403C90D94CC770D94D6
:10065000B8640C94B9926E616E00696E66004E418A
:100660004E494E495459494E46CDCCCC3D0AD7232C
:100670003C17B7D13877CC2B329595E6241FB14F74
:100680000A000020410000C84200401C4620BCBEB9
:100690004CCA1B0E5AAEC59D7400407A10F35A0026
:1006A000A0724E18090010A5D4E80000E87648179B
:1006B0000000E40B54020000CA9A3B000000E1F580
:1006C00005000080969800000040420F000000A046
:1006D0008601000000102700000000E80300000071
:1006E000006400000000000A00000000000100009B
:1006F0000000002C76D888DC674F0823DFC1DFAE0E
:1007000059E1B1B796E5E3E453C63AE651997696D6
:10071000E8E6C28426EB898C9B62ED407C6FFCEF9F
:10072000BC9C9F40F2BAA56FA5F490055A2AF75CCD
:10073000936B6CF9676DC11BFCE0E40D47FEF5207F
:10074000E6B500D0ED902E03009435770500808447
:100750001E080000204E0A000000C80C333333335B
:100760000F986E12831141EF8D2114893BE65516C7
:10077000CFFEE6DB18D1844B381BF77C1D901DA4FF
:10078000BBE424203284725E228100C9F124ECA1F2
:10079000E53D276364696E6F70737578585B00255B
:1007A00064206279746573207772697474656E2051
:1007B000746F20454550524F4D2061742061646430
:1007C0007265737320307825303478004433202DDF
:1007D00020526561642F57726974652045455052F7
:1007E0004F4D0A0020436F756E7420583A20005315
:1007F00044207072696E74696E6720627974652036
:10080000004E6F7420696E206661726D206D6F649A
:10081000652E00416374697665204578747275644D
:1008200065723A2000496E76616C6964206578745F
:100830007275646572005A204F6666736574005560
:100840006E6B6E6F776E20636F6D6D616E643A20B4
:1008500022004D32303020496E76616C696420652B
:100860007874727564657220007A5F6D61783A20E1
:10087000007A5F6D696E3A2000795F6D61783A2089
:1008800000795F6D696E3A2000785F6D61783A207B
:10089000006F70656E005452494747455245440009
:1008A000785F6D696E3A20005265706F7274696E80
:1008B0006720656E6473746F7020737461747573F0
:1008C0000053494C454E54004E4F524D414C00256B
:1008D00053204D4F44453A2050657263656E742035
:1008E000646F6E653A2025643B207072696E7420D7
:1008F00074696D652072656D61696E696E672069E6
:100900006E206D696E733A2025640A00456E64207E
:1009100066696C65206C69737400426567696E2056
:1009200066696C65206C697374000A50494E4441D5
:100930002074656D70657261747572653A20252E3C
:100940003166205A20736869667420286D6D293AD3
:1009500020252E3366000A537465703A2025642FD3
:10096000360A000A537465703A2025642F36202811
:10097000736B6970706564290A50494E4441207454
:10098000656D70657261747572653A202564205AD0
:1009900020736869667420286D6D293A300A000A50
:1009A0005A45524F3A20252E33660A0073746172FD
:1009B000742074656D70657261747572653A202576
:1009C0002E31660A0025642020252E32660025532C
:1009D00020583A20252E356620593A20252E356696
:1009E000205A3A20252E35660A00536C6565702E14
:1009F0002E2E004E6F7420696E206661726D206D20
:100A00006F64652E0025640045303A2564205250FD
:100A10004D0A50524E303A25642052504D0A00255E
:100A20006400442D31202D20456E646C6573732065
:100A30006C6F6F700A00416476616E6365204B3D98
:100A4000004B206F7574206F6620616C6C6F77654A
:100A5000642072616E676521004D3232302053256B
:100A60006900255346696C616D656E742073657409
:100A700074696E67733A2044697361626C65640AD5
:100A800000255346696C616D656E742073657474DE
:100A9000696E67733A0A25532020204D323030208A
:100AA00044252E32660A00255352657472616374C0
:100AB0003A20533D4C656E67746820286D6D29207F
:100AC000463A537065656420286D6D2F6D29205A54
:100AD0003A205A4C69667420286D6D290A255320E6
:100AE00020204D3230372053252E32662046252EC9
:100AF0003266205A252E32660A25535265636F7678
:100B000065723A20533D4578747261206C656E675A
:100B1000746820286D6D2920463A537065656420FD
:100B2000286D6D2F6D290A25532020204D32303835
:100B30002053252E32662046252E32660A25534143
:100B400075746F2D526574726163743A20533D3031
:100B500020746F2064697361626C652C203120748D
:100B60006F20696E74657270726574206578747236
:100B70007564652D6F6E6C79206D6F76657320617D
:100B800073207265747261637473206F7220726572
:100B9000636F7665726965730A25532020204D3294
:100BA0003039205325640A00255350494420686594
:100BB00061746265642073657474696E67733A0A60
:100BC00025532020204D3330342050252E326620EE
:100BD00049252E32662044252E32660A00255350C0
:100BE00049442073657474696E67733A0A2553200B
:100BF00020204D3330312050252E32662049252EBD
:100C000032662044252E32660A00255353746570DF
:100C1000732070657220756E69743A0A255320201E
:100C20004D39322058252E32662059252E32662025
:100C30005A252E32662045252E32660A25535553F5
:100C4000746570207265736F6C7574696F6E3A208D
:100C50000A2553204D33353020582564205925640A
:100C6000205A2564204525640A25534D6178696D15
:100C7000756D20666565647261746573202D206EE4
:100C80006F726D616C20286D6D2F73293A0A2553A0
:100C900020204D3230332058252E32662059252E03
:100CA0003266205A252E32662045252E32660A25C8
:100CB000534D6178696D756D206665656472617408
:100CC0006573202D20737465616C746820286D6DC8
:100CD0002F73293A0A255320204D323033205825CE
:100CE0002E32662059252E3266205A252E32662055
:100CF00045252E32660A25534D6178696D756D2044
:100D0000616363656C65726174696F6E202D206E1E
:100D10006F726D616C20286D6D2F7332293A0A2530
:100D20005320204D3230312058256C752059256CC8
:100D300075205A256C752045256C750A25534D6123
:100D400078696D756D20616363656C657261746946
:100D50006F6E202D20737465616C746820286D6D32
:100D60002F7332293A0A255320204D323031205832
:100D7000256C752059256C75205A256C75204525E4
:100D80006C750A2553416363656C65726174696FA4
:100D90006E3A20533D616363656C65726174696F7F
:100DA0006E2C20543D7265747261637420616363BC
:100DB000656C65726174696F6E0A255320204D322F
:100DC00030342053252E32662054252E32660A25D3
:100DD00053416476616E6365642076617269616215
:100DE0006C65733A20533D4D696E2066656564728B
:100DF00061746520286D6D2F73292C20543D4D6939
:100E00006E2074726176656C2066656564726174CB
:100E10006520286D6D2F73292C20423D6D696E6908
:100E20006D756D207365676D656E742074696D6591
:100E300020286D73292C20583D6D6178696D756D82
:100E4000205859206A65726B20286D6D2F73292CEC
:100E500020205A3D6D6178696D756D205A206A6554
:100E6000726B20286D6D2F73292C2020453D6D61FC
:100E700078696D756D2045206A65726B20286D6DEF
:100E80002F73290A255320204D3230352053252E2B
:100E900032662054252E32662042252E3266205896
:100EA000252E32662059252E3266205A252E32668E
:100EB0002045252E32660A2553486F6D65206F66E2
:100EC0006673657420286D6D293A0A255320204DDC
:100ED0003230362058252E32662059252E32662093
:100EE0005A252E32660A004625642025640A004DE4
:100EF0004D55203C3D2027462564202564270A00C7
:100F0000504944204175746F74756E652066696E32
:100F10006973686564212050757420746865206C5D
:100F2000617374204B702C204B6920616E64204BE0
:100F30006420636F6E7374616E74732066726F6D7C
:100F40002061626F766520696E746F20436F6E66F4
:100F5000696775726174696F6E2E6800504944202C
:100F60004175746F74756E65206661696C65642186
:100F70002074696D656F75740020403A00543A0022
:100F8000423A00504944204175746F74756E652073
:100F90006661696C6564212054656D706572617469
:100FA00075726520746F6F206869676800204B64F4
:100FB0003A2000204B693A2000204B703A20002054
:100FC000436C617373696320504944200020547559
:100FD0003A2000204B753A2000206D61783A2000BD
:100FE000206D696E3A200020643A20002062696119
:100FF000733A200020453A00205A3A0020593A001E
:1010000020453A00205A3A0020593A00583A000048
:101010005A30005A310059300059310058300058C8
:101020003100456E642073746F707320646961676A
:10103000002E0044656C6574696F6E206661696C92
:1010400065642C2046696C653A200046696C652011
:1010500064656C657465643A000A002F000A004EEE
:101060006F74205344207072696E74696E6700500B
:1010700072696E74207361766564005344207072E7
:10108000696E7420706175736564004F4B00424156
:10109000440052414D426F2046414E200043524190
:1010A00053485F43414E43454C0043524153485FD0
:1010B0005245434F5645520043524153485F5245B3
:1010C000434F56455200222832290054004475707F
:1010D0006C696361746520542D636F646520696772
:1010E0006E6F7265642E0A004475706C696361747A
:1010F0006520542D636F64652069676E6F72656447
:101100002E0A00496E76616C6964205420636F6416
:10111000652E00556E6B6E6F776E204D20636F6489
:10112000653A202573200A006E6F2076616C696431
:1011300020636F6D6D616E64002C20002C20002CEC
:1011400020006E2F61002C20002C20002C20006E2F
:101150002F61002F00503A005761697420666F724A
:101160002050494E44412074617267657420746553
:101170006D70657261747572653A004C414E47201E
:1011800053454C20464F5243454400222831290004
:1011900030303030303030302D303030302D303055
:1011A00030302D303030302D303030303030303045
:1011B000303030300020555549443A003100204548
:1011C000585452554445525F434F554E543A005A75
:1011D000617269626F203332306100204D414348B3
:1011E000494E455F545950453A00312E3000206237
:1011F00061736564206F6E204D61726C696E20466C
:1012000049524D574152455F55524C3A687474707B
:10121000733A2F2F6769746875622E636F6D2F7034
:101220007275736133642F50727573612D466972E4
:101230006D776172652050524F544F434F4C5F564B
:10124000455253494F4E3A004649524D5741524537
:101250005F4E414D453A50727573612D4669726D0E
:101260007761726520004D31313320530020423ABE
:101270000020453A00543A0020413A0020503A00FC
:101280002042403A0020403A00202F003A002054EB
:1012900000202F0020423A00202F006F6B20543A8C
:1012A000002569206D696E2C202569207365630017
:1012B000496E76616C6964204D20636F64653A20E5
:1012C0002573200A00556E6B6E6F776E2047206382
:1012D0006F64653A202573200A004D6573682062AB
:1012E0006564206C6576656C696E67206E6F74202E
:1012F0006163746976652E000A002020000A4D653E
:1013000061737572656420706F696E74733A000A58
:101310005A20736561726368206865696768743A0A
:1013200020002C004E756D20582C593A2000206D5D
:101330006963726F6E730045786365737369766570
:1013400020626564206C6576656C696E6720636FEA
:101350007272656374696F6E3A2000426564206C36
:101360006576656C696E67206661696C65642E20C0
:1013700053656E736F722074726967676572656416
:1013800020746F6F20686967682E0A0042656420C8
:101390006C6576656C696E67206661696C65642E44
:1013A0002053656E736F7220646973636F6E6E6530
:1013B00063746564206F72206361626C6520627281
:1013C0006F6B656E2E0A0047323820573000504947
:1013D0004E44412070726F62652063616C69627275
:1013E0006174696F6E2073746172740047323820C3
:1013F0005730004D3234005345545F43484F505FDF
:10140000005345545F535445505F005345545F5754
:101410004156455F00544D435F0043524153485F7E
:1014200000472D636F646520736C69636564206693
:101430006F72206120646966666572656E74206CE7
:101440006576656C2E20436F6E74696E75653F001E
:10145000472D636F646520736C6963656420666FF4
:1014600072206120646966666572656E74206C65C1
:1014700076656C2E20506C656173652072652D73E6
:101480006C69636520746865206D6F64656C2061AC
:101490006761696E2E205072696E742063616E639D
:1014A000656C6C65642E00472D636F646520736CFA
:1014B0006963656420666F722061206E657765726E
:1014C000206669726D776172652E20506C6561735C
:1014D0006520757064617465207468652066697242
:1014E0006D776172652E205072696E742063616E33
:1014F00063656C6C65642E00472D636F64652073B3
:101500006C6963656420666F722061206E65776523
:1015100072206669726D776172652E20436F6E74FA
:10152000696E75653F00472D636F646520736C6954
:1015300063656420666F7220612064696666657207
:10154000656E74207072696E74657220747970654E
:101550002E20506C656173652072652D736C696314
:101560006520746865206D6F64656C2061676169D2
:101570006E2E205072696E742063616E63656C6CB0
:1015800065642E00472D636F646520736C69636525
:101590006420666F72206120646966666572656E9C
:1015A00074207072696E74657220747970652E2073
:1015B000436F6E74696E75653F00472D636F646598
:1015C00020736C6963656420666F722061206469B2
:1015D00066666572656E74207072696E74657220DD
:1015E000747970652E20436F6E74696E75653F0067
:1015F000472D636F646520736C6963656420666F53
:1016000072206120646966666572656E742070720E
:10161000696E74657220747970652E20506C6561F6
:1016200073652072652D736C69636520746865202D
:101630006D6F64656C20616761696E2E2050726900
:101640006E742063616E63656C6C65642E0050720D
:10165000657373206B6E6F6220746F2070726568A3
:10166000656174206E6F7A7A6C6520616E642063A8
:101670006F6E74696E75652E00506C6561736520C0
:10168000707265737320746865206B6E6F6220746E
:101690006F20756E6C6F61642066696C616D656E3C
:1016A000740052656D6F7665206F6C642066696C9E
:1016B000616D656E7420616E642070726573732055
:1016C000746865206B6E6F6220746F207374617232
:1016D00074206C6F6164696E67206E65772066693F
:1016E0006C616D656E742E00616E6420707265733E
:1016F0007320746865206B6E6F6200496E7365724B
:10170000742066696C616D656E7400436F6C6F72F6
:10171000206E6F7420636F72726563740046696C2B
:10172000616D656E74206E6F74206C6F61646564AA
:10173000004368616E67656420636F7272656374ED
:101740006C793F004C6F6164696E6720636F6C6FEA
:1017500072004368616E67652073756363657373B8
:101760002100506C65617365206F70656E2069643F
:101770006C657220616E642072656D6F766520669F
:10178000696C616D656E74206D616E75616C6C79EC
:101790002E005761732066696C616D656E742075EB
:1017A0006E6C6F6164207375636365737366756CCB
:1017B0003F00506C65617365207570677261646588
:1017C0002E004E6577206669726D776172652076AE
:1017D000657273696F6E20617661696C61626C65B8
:1017E0003A0057616974696E6720666F72205049CC
:1017F0004E44412070726F626520636F6F6C696E3A
:10180000670043726173682064657465637465641E
:101810002E20526573756D65207072696E743F007D
:1018200043726173682064657465637465642E0037
:1018300045787472756465720043686F6F736520D4
:1018400065787472756465723A0043686F6F73658A
:101850002066696C616D656E743A004E6F206D6F25
:1018600076652E005761697420666F722075736506
:10187000722E2E2E00536F6D652070726F626C6534
:101880006D20656E636F756E74657265642C205A89
:101890002D6C6576656C696E6720656E666F726328
:1018A0006564202E2E2E00537461626C6520616D7C
:1018B0006269656E742074656D70657261747572AD
:1018C000652032312D323643206973206E656564A0
:1018D00065642061207269676964207374616E6455
:1018E0002069732072657175697265642E00506C91
:1018F000656173652072756E2058595A2063616C5A
:101900006962726174696F6E2066697273742E0009
:1019100073746172740A006164635F696E69740A4A
:10192000000A204F726967696E616C20507275738E
:10193000612069330A20202050727573612052653E
:1019400073656172636800436F6E74696E756520BC
:101950007769746820616E6F7468657220626F7752
:1019600064656E3F002500202020202020002020DC
:10197000202020200045524153494E4720616C6C85
:10198000206461746100466163746F72792052450E
:1019900053455400466163746F7279205245534534
:1019A0005400202873656E736F7220626F617264D9
:1019B000207265766973696F6E3A2553290A00446F
:1019C000495341424C454400454E41424C45440038
:1019D0004653656E736F7220255300494E54340090
:1019E0004D4B33534D4D553253004E4F4D4B3353AA
:1019F000002E014A756C20313020323032300043E5
:101A00006F6D70696C65643A20002833442D47750A
:101A100073736E65722C205A617269626F29004A75
:101A2000756C20313020323032302031353A33314C
:101A30003A303000436F6D6D697420486173683AC5
:101A4000200A0020332E392E302D343135330A0050
:101A50002055706C6F616420696E2070726F6772C0
:101A600065737300205A3A0020593A0020583A0012
:101A700043524153485F44455445435445445859A3
:101A80000043524153485F444554454354454459EB
:101A90000043524153485F444554454354454458DC
:101AA000004D32390045787465726E616C20535078
:101AB0004920666C6173680A573235583230434C9E
:101AC000206973206E6F74207265732D0A706F6EBB
:101AD00064696E672E204C616E67756167650A7375
:101AE000776974636820756E617661696C61626C98
:101AF000652E0043726173684465746563742044A5
:101B0000495341424C4544004372617368446574D3
:101B100065637420454E41424C454421005732359F
:101B2000583230434C206E6F7420726573706F6E44
:101B300064696E672E0A002020506C616E6E6572BB
:101B400042756666657242797465733A2000204674
:101B5000726565204D656D6F72793A2000207C209A
:101B6000417574686F723A2000204C61737420557F
:101B70007064617465643A200020536F6674776105
:101B800072652052657365740020576174636864E0
:101B90006F67205265736574002042726F776E2004
:101BA0006F75742052657365740020457874657292
:101BB0006E616C20526573657400506F7765725565
:101BC00070006572726F722077726974696E672037
:101BD000746F2066696C6500656E6473746F7073F2
:101BE000206869743A2000446F6E652073617669DD
:101BF0006E672066696C652E006F6B0020302E3397
:101C0000206F72206F6C6465720020302E34206F5C
:101C100072206E65776572004D4B33532066697292
:101C20006D77617265206465746563746564206FA7
:101C30006E204D4B33207072696E746572005A616C
:101C40007269626F203332306100426C61636B6F86
:101C50007574206F636375727265642E20526563BC
:101C60006F766572207072696E743F0053656C66A2
:101C7000746573742077696C6C2062652072756E70
:101C800020746F2063616C696272617465206163A6
:101C90006375726174652073656E736F726C6573C2
:101CA00073207265686F6D696E672E005468657287
:101CB00065206973207374696C6C2061206E6565A2
:101CC0006420746F206D616B65205A2063616C69BC
:101CD00062726174696F6E2E20506C65617365204D
:101CE000666F6C6C6F7720746865206D616E7561CE
:101CF0006C2C20636861707465722046697273741D
:101D00002073746570732C2073656374696F6E2023
:101D100043616C6962726174696F6E20666C6F7783
:101D20002E005072696E74657220686173206E6F48
:101D300074206265656E2063616C696272617465AE
:101D400064207965742E20506C6561736520666F20
:101D50006C6C6F7720746865206D616E75616C2C9A
:101D600020636861707465722046697273742073B1
:101D7000746570732C2073656374696F6E204361A2
:101D80006C6962726174696F6E20666C6F772E0089
:101D90004F6C642073657474696E677320666F7529
:101DA0006E642E2044656661756C74205049442C25
:101DB00020457374657073206574632E2077696C99
:101DC0006C206265207365742E005761726E696EB7
:101DD000673A20626F7468207072696E7465722051
:101DE0007479706520616E64206D6F7468657262CD
:101DF0006F6172642074797065206368616E6765D5
:101E0000642E005761726E696E673A207072696E57
:101E10007465722074797065206368616E676564AB
:101E20002E005761726E696E673A206D6F74686537
:101E300072626F6172642074797065206368616E8C
:101E40006765642E0058595A2063616C696272613B
:101E500074696F6E20616C6C2072696768742E20E3
:101E6000536B65772077696C6C20626520636F72B5
:101E7000726563746564206175746F6D6174696304
:101E8000616C6C792E0058595A2063616C696272DA
:101E90006174696F6E20616C6C2072696768742E62
:101EA00020582F5920617865732061726520736C0A
:101EB000696768746C7920736B657765642E204759
:101EC0006F6F64206A6F62210058595A2063616CF9
:101ED0006962726174696F6E206F6B2E20582F5982
:101EE0002061786573206172652070657270656E1F
:101EF000646963756C61722E20436F6E67726174E2
:101F0000756C6174696F6E73210058595A20636152
:101F10006C6962726174696F6E206661696C656478
:101F20002E2052696768742066726F6E7420636138
:101F30006C6962726174696F6E20706F696E742073
:101F40006E6F7420726561636861626C652E005803
:101F5000595A2063616C6962726174696F6E2066A0
:101F600061696C65642E2046726F6E742063616CCB
:101F70006962726174696F6E20706F696E7473202C
:101F80006E6F7420726561636861626C652E0058C3
:101F9000595A2063616C6962726174696F6E206660
:101FA00061696C65642E20506C6561736520636F98
:101FB0006E73756C7420746865206D616E75616CEC
:101FC0002E0058595A2063616C6962726174696F9E
:101FD0006E20636F6D70726F6D697365642E205231
:101FE000696768742066726F6E742063616C6962E1
:101FF000726174696F6E20706F696E74206E6F7499
:1020000020726561636861626C652E0058595A20C0
:1020100063616C6962726174696F6E20636F6D7069
:10202000726F6D697365642E2046726F6E742063E3
:10203000616C6962726174696F6E20706F696E7431
:1020400073206E6F7420726561636861626C652EC7
:102050000058595A2063616C6962726174696F6ECD
:10206000206661696C65642E204265642063616C42
:102070006962726174696F6E20706F696E74207727
:102080006173206E6F7420666F756E642E00506CE5
:102090006561736520706C61636520737465656C40
:1020A000207368656574206F6E2068656174626571
:1020B000642E0044697374616E6365206265747791
:1020C00065656E20746970206F6620746865206E87
:1020D0006F7A7A6C6520616E642074686520626531
:1020E00064207375726661636520686173206E6F2A
:1020F00074206265656E20736574207965742E2086
:10210000506C6561736520666F6C6C6F77207468C6
:1021100065206D616E75616C2C20636861707465FB
:10212000722046697273742073746570732C207307
:10213000656374696F6E204669727374206C61798F
:1021400065722063616C6962726174696F6E2E00E2
:10215000506C6163652061207368656574206F66EB
:1021600020706170657220756E6465722074686598
:10217000206E6F7A7A6C6520647572696E67207460
:1021800068652063616C6962726174696F6E206F4B
:1021900066206669727374203420706F696E747380
:1021A0002E20496620746865206E6F7A7A6C6520EF
:1021B000636174636865732074686520706170651D
:1021C000722C20706F776572206F66662074686568
:1021D000207072696E74657220696D6D65646961E5
:1021E00074656C792E00506C656173652072656D45
:1021F0006F766520737465656C20736865657420FF
:1022000066726F6D20686561746265642E00497343
:1022100020737465656C207368656574206F6E202B
:10222000686561746265643F00206F662034005306
:102230006561726368696E67206265642063616CC2
:102240006962726174696F6E20706F696E740020CC
:102250006F662039004D6561737572696E67207213
:1022600065666572656E6365206865696768742078
:102270006F662063616C6962726174696F6E207051
:102280006F696E7400506C6561736520636C656185
:102290006E20746865206E6F7A7A6C6520666F7246
:1022A0002063616C6962726174696F6E2E20436C89
:1022B00069636B207768656E20646F6E652E0041E0
:1022C00075746F20686F6D650078797A63616C5FF3
:1022D0006D656173737572655F656E7465720A0012
:1022E00078797A63616C5F73706972616C382063AE
:1022F000783D25642063793D2564207A303D25644E
:1023000020647A3D2564207261646975733D25649B
:102310002061643D25640A0078797A63616C5F739B
:1023200065617263685A206E6F207369676E616CB5
:102330000A20783D256C6420793D256C64207A3D27
:10234000256C640A00204F4E2D5349474E414C20C6
:10235000617420783D256420793D2564207A3D25EF
:10236000642061643D25640A0078797A63616C5F5A
:102370007365617263685A20783D256C6420793DED
:10238000256C64207A3D256C640A000A00253032F1
:10239000780078797A63616C5F7363616E5F7069EE
:1023A00078656C735F33327833322063783D25640F
:1023B0002063793D2564206D696E5F7A3D25642038
:1023C0006D61785F7A3D25640A00202532642025FE
:1023D000640A000A002530327800206D696E3D25C0
:1023E00064206D61783D2564206469663D25640A3A
:1023F000006D61785F633D253264206D61785F6CAC
:102400003D25640A006D61785F633D2564206D6140
:10241000785F723D2564206D61785F6D61746368DB
:102420003D25640A0020783D256420793D256420FF
:102430007A3D25640A00207061747465726E2066AE
:102440006F756E642061742025642025640A000085
:1024500000F000F801FC03FE07FE07FE07FE07FC84
:1024600003F801F000000073697A656F6628746FE5
:1024700074616C293D25640A0073697A656F66286A
:10248000626C6F636B5F627566666572293D256479
:102490000A0078797A63616C5F6D65617373757238
:1024A000655F6C656176650A00706F696E743D25C5
:1024B0006420783D256420793D2564207A3D25649B
:1024C0000A0058025802584D584DB004F055F055C6
:1024D000B00478797A63616C5F66696E645F626587
:1024E000645F696E64756374696F6E5F73656E7344
:1024F0006F725F706F696E745F787920783D256CBC
:102500006420793D256C64207A3D256C640A0020A6
:102510003C20005741524E494E473A2046726F6E5A
:102520007420706F696E74206E6F742072656163C1
:102530006861626C652E205920636F6F7264696EEA
:102540006174653A0000000040410000C040000096
:102550005C430000C04000005C43000046430000B4
:10256000404100004643497465726174696F6E3A78
:10257000200043616C6962726174696F6E206661EC
:10258000696C65642120436865636B20746865200D
:102590006178657320616E642072756E2061676179
:1025A000696E2E002563252D2E31365320002563BC
:1025B000252E3135533A25732533640045787265ED
:1025C0006D65207370616E206F6620746865205A97
:1025D0002076616C75657321006F6B0A00737461FE
:1025E00072740A004D4D5532206669726D776172C2
:1025F000652076657273696F6E20696E76616C69AD
:10260000642E2052657175697265642076657273F7
:10261000696F6E3A206275696C64206E756D6265D3
:1026200072202564206F72206869676865722E00C9
:102630004D4D55203D3E20276F6B270A004D4D55CF
:10264000203D3E20276F6B270A002564004D4D5525
:10265000203D3E20276F6B272C20726573756D65BA
:10266000207072696E740A004D4D55207265747247
:102670007920617474656D7074206E722E202564EB
:102680000A004D4D55203D3E20276F6B270A004123
:102690000A004D4D55203C3D202741270A004D366C
:1026A0003030004D363030204155544F0025686899
:1026B0007500410A004D4D55203C3D202741270A19
:1026C0000050300A004D25640A004D4D55203C3D18
:1026D00020274D2564270A0057300A004D4D55200C
:1026E0003C3D20275730270A0053330A004D4D55F3
:1026F000203C3D20275333270A0052300A004D4D1D
:1027000055203C3D20275230270A004B25640A0003
:102710004D4D55203C3D20274B2564270A0045257B
:10272000640A004D4D55203C3D2027452564270A6D
:102730000055300A004D4D55203C3D20275530278F
:102740000A0043300A004D4D55203C3D20274330C0
:10275000270A004C25640A004D4D55203C3D20279A
:102760004C2564270A005425640A004D4D55203C31
:102770003D2027542564270A004D4D55202D204526
:102780004E41424C454400256868750050300A00AF
:102790004D310A004D4D55203C3D20274D3127003D
:1027A00050300A004D4D552076657273696F6E206A
:1027B00076616C6964004D4D55203D3E20272564AF
:1027C0006F6B270A0025750053320A004D4D5520C6
:1027D0003C3D2027533227004D4D55203D3E2027BC
:1027E00025646F6B270A002575004D4D55206E6FCF
:1027F0007420726573706F6E64696E67202D20445B
:10280000495341424C45440053310A004D4D552037
:102810003C3D2027533127004D4D55203D3E20277C
:1028200073746172742700426564206C6576656C10
:10283000696E67206661696C65642E2053656E73EE
:102840006F72206469646E74207472696767657260
:102850002E20446562726973206F6E206E6F7A7AE3
:102860006C653F2057616974696E6720666F7220DE
:1028700072657365742E00506C65617365207570A8
:1028800064617465206669726D7761726520696E36
:1028900020796F7572204D4D55322E205761697425
:1028A000696E6720666F722072657365742E0054BE
:1028B0004D4320445249564552204F5645525445A7
:1028C0004D500025632533642F25642563005A2568
:1028D000362E32662563005A2020202D2D2D200013
:1028E00025632533642525002D2D2D0025336868AB
:1028F00064002533532533732525002053440020DD
:10290000202000555342002025753E257500203FAC
:102910003E257500204625750020463F00204630A4
:1029200020200025632D2D3A2D2D20200025632504
:102930003375682025632563002563253032753A99
:10294000253032752563256300726573756C7420BC
:1029500076616C75653A2025640A0020693D253250
:102960006420636E743D2532642076616C3D2532AF
:10297000640A00636C7573746572733A0A002069A7
:102980003D25326420737465703D2532640A0073FE
:102990006F727465642073616D706C65733A0A00C0
:1029A0005553415254322072782046756C6C212167
:1029B000210A00252D3773003A200025642F3600A8
:1029C000252D3230530020202020202020202020C0
:1029D00020202020202020202000203A200020201D
:1029E00020202020202020202020202020202020E7
:1029F000202000252D323073002020202020202090
:102A00002020202020200025730050494E444120E2
:102A100048656174696E670043616C6962726174D4
:102A2000696F6E20646F6E650043616C69627261EC
:102A300074696E67205A0042656420646F6E650099
:102A40004265642048656174696E67004865617419
:102A5000696E6720646F6E652E0048656174696EEB
:102A6000670024F4D43050C38E20C2A24017828B5A
:102A70007011127A910D816CD90AA861E108C758CA
:102A80006607615143061E4B5D05C145A7041A4107
:102A90001104093D9803713931034036DB02653377
:102AA0009102D4305402802E1D02632CEE01752A4F
:102AB000C501B028A001102781018F2564012B24B6
:102AC0004B01E0223401AC211F018D200D01801F3C
:102AD000FC00841EED00971DDF00B81CD200E61B31
:102AE000C600201BBC00641AB200B219A8000A1963
:102AF000A0006A189900D117910040178B00B516F5
:102B0000840031167E00B31579003A157300C7149E
:102B10006F0058146A00EE136600881363002513D3
:102B20005E00C7125B006C12570015125400C111F1
:102B3000510070114F0021114B00D61049008D102B
:102B400047004610440002104200C00F4000800FB2
:102B50003E00420F3C00060F3B00CB0E3800930EA8
:102B600037005C0E3500270E3400F30D3200C10D26
:102B70003100900D3000600D2E00320D2D00050D3E
:102B80002C00D90C2B00AE0C2900850C29005C0C04
:102B90002700350C27000E0C2600E80B2400C40B80
:102BA0002400A00B23007D0B23005A0B2100390BBE
:102BB0002100180B2000F80A1F00D90A1E00BB0ACA
:102BC0001E009D0A1D00800A1D00630A1C00470AA2
:102BD0001B002C0A1B00110A1A00F7091A00DD0954
:102BE0001900C4091900AB091900920917007B09E3
:102BF0001800630917004C09160036091600200951
:102C000016000A091500F5081500E0081400CC08A4
:102C10001400B8081400A4081400900813007D08DC
:102C200012006B08130058081200460812003408FE
:102C30001100230811001208110001081100F0070B
:102C40001000E0071000D0071000C0071000B00708
:102C50000F00A107100091070E0083070F007407F3
:102C60000F0065070E0057070E0049070E003B07CF
:102C70000D002E070E0020070D0013070D0006079C
:102C80000D00F9060C00ED060D00E0060C00D40660
:102C90000C00C8060C00BC060C00B0060C00A40614
:102CA0000B0099060C008D060B0082060B007706C0
:102CB0000B006C060B0061060A0057060B004C0661
:102CC0000A0042060A0038060A002E060A002406F8
:102CD0000A001A060A001006090007060A00FD0588
:102CE0000900F4050900EB050900E2050900D90512
:102CF0000900D0050900C7050900BE050900B50592
:102D00000800AD050800A50509009C05080094050C
:102D100008008C050800840508007C05080074057F
:102D200008006C050700650508005D0507005605ED
:102D300008004E0507004705070040050800380554
:102D40000700310507002A050700230507001C05B9
:102D50000600160507000F05070008050600020516
:102D60000700FB040600F5040700EE040600E80473
:102D70000600E2040700DB040600D5040600CF04C9
:102D80000600C9040600C3040600BD040600B7041B
:102D90000600B1040500AC040600A6040600A00469
:102DA00005009B04060095040500900406008A04B3
:102DB000050085040500800406007A0405007504FA
:102DC0000500700405006B0405006604050061043D
:102DD00005005C04050057040500520405004D047D
:102DE000050048040500430405003E0404003A04BD
:102DF000050035040500300404002C0405002704F8
:102E00000400230405001E0404001A040400160430
:102E10000500110404000D04040009040500040465
:102E2000040000040400FC030400F8030400F4039D
:102E30000400F0030400EC030400E8030400E403CE
:102E40000400E0030400DC030400D8030400D403FE
:102E50000400D0030400CC030400C8030300C5032E
:102E6000030024F404D9201BC40C5C0E9804C4098C
:102E70005F0265077101F405F900FB04B300480423
:102E80008700C10369005803550003034500BE02D3
:102E90003A008402310053022A002902250004026C
:102EA0002000E4011C00C8011900AF0117009801BF
:102EB0001400840113007101100061011000510120
:102EC0000E0043010D0036010B002B010B00200109
:102ED0000B00150109000C01090003010800FB00AB
:102EE0000800F3000800EB000700E4000600DE0025
:102EF0000600D8000600D2000600CC000500C7007E
:102F00000500C2000500BD000400B9000400B500C2
:102F10000400B1000400AD000400A9000400A500F5
:102F20000300A20003009F0004009B000300980020
:102F300003009500020093000300900003008D0041
:102F400002008B000300880002008600020084005B
:102F50000300810002007F0002007D0002007B0070
:102F60000200790002007700010076000200740080
:102F7000020072000100710002006F0002006D008B
:102F800001006C0002006A00010069000200670095
:102F9000010066000100650001006400020062009B
:102FA000010061000100600001005F0002005D009F
:102FB00001005C0001005B0001005A0001005900A3
:102FC00001005800010057000100560001005500A3
:102FD00001005400010053000000530001005200A2
:102FE000010051000100500001004F0001004E009F
:102FF00000004E0001004D0001004C0001004B009C
:1030000000004B0001004A00010049000100480097
:103010000000480001004700010046000000460093
:10302000010045000000450001004400010043008C
:103030000000430001004200000042000100410086
:10304000000041000100400001003F0000003F007F
:1030500001003E0000003E0001003D0000003D0078
:1030600001003C0000003C0000003C0001003B006F
:1030700000003B0001003A0000003A000100390066
:10308000000039000100380000003800000038005E
:103090000100370000003700010036000000360054
:1030A000000036000100350000003500000035004A
:1030B000010034000000340000003400010033003F
:1030C0000000330000003300010032000000320035
:1030D000000032000100310000003100000031002A
:1030E00001003000000030000000300001002F001F
:1030F00000002F0000002F0000002F0001002E0014
:1031000000002E0000002E0001002D0000002D0008
:1031100000002D0000002D0001002C0000002C00FC
:1031200000002C0000002C0001002B0000002B00F0
:1031300000002B0000002B0001002A0000002A00E4
:1031400000002A0000002A000100290000002900D8
:1031500000002900000029000000290001002800CB
:1031600000002800000028000000280000002800BF
:1031700001002700000027000000270000002700B2
:1031800000002700010026000000260000002600A5
:103190000000260000002600010025000000250098
:1031A000000025000000250000002500000025008B
:1031B000010024000000240000002400000024007E
:1031C0000000240001002300000023000000230071
:1031D0000000230000002300000023000000230063
:1031E0000100220000002200000022000000220056
:1031F0000000220000002200010021000000210048
:10320000000021000000210000002100000021003A
:10321000000021000100200000002000000020002C
:10322000000020000000200000002000000020001E
:103230000000200001001F0000001F0000001F0010
:1032400000001F0000001F0000001F0000001F0002
:1032500001001E0000001E0000001E0000001E00F5
:10326000000054656D702E2063616C696272617438
:10327000696F6E0052657365742058595A206361F6
:103280006C6962722E005049442063616C696272FD
:103290006174696F6E00426564206C6576656C20B0
:1032A000636F7272656374004D6573682042656474
:1032B000204C6576656C696E670043616C6962726B
:1032C000617465205A0043616C69627261746520A3
:1032D00058595A0053656C66746573742020202019
:1032E00020202020200042656C74207465737420B7
:1032F000202020202020200057697A617264004C31
:103300006F616420616C6C00456A65637420666956
:103310006C616D656E74004375742066696C616DD7
:10332000656E7400506C656173652070756C6C20FF
:103330006F75742066696C616D656E7420696D6D62
:103340006564696174656C7900556E6C6F61646960
:103350006E672066696C616D656E74005265737589
:103360006D696E67207072696E7400526573657462
:103370000052656E616D65004669727374206C6100
:103380007965722063616C2E0053656C656374000F
:10339000537465656C207368656574730053686564
:1033A000657400537570706F7274004661696C20AB
:1033B0007374617473204D4D55004661696C2073C0
:1033C00074617473005374617469737469637320F6
:1033D000200043616C6962726174696F6E004175AF
:1033E000746F4C6F61642066696C616D656E74000A
:1033F0004375742066696C616D656E7400456A651D
:1034000063742066696C616D656E7400556E6C6FD7
:1034100061642066696C616D656E74004C6F6164F7
:1034200020746F206E6F7A7A6C65004C6F61642037
:1034300066696C616D656E74004E6F205344206345
:10344000617264005072696E742066726F6D2053F1
:103450004400526573756D65207072696E7400501A
:1034600061757365207072696E7400526573756D55
:1034700065207072696E74005072656865617400D1
:1034800054756E65004C6976652061646A75737465
:10349000205A00496E666F2073637265656E004640
:1034A000696E697368696E67206D6F76656D656EAC
:1034B0007473004272696768746E65737300417358
:1034C000736973740053696C656E74004F6E636545
:1034D000004C6F756400536F756E64004D4D552040
:1034E0004D6F6465004372617368206465742E00DB
:1034F000537465616C7468004E6F726D616C004648
:10350000616E7320636865636B005061757365005D
:10351000436F6E742E00465320416374696F6E00D2
:1035200046696C2E2073656E736F72004368616E1E
:1035300067652066696C616D656E7400466C6F77B7
:10354000005370656564004D3434004732382057AD
:10355000004739390044697361626C6520666172A5
:103560006D206D6F64653F00252D392E39535B004A
:103570002563252D31382E3138732563004661725D
:103580006D206E756D626572004D3630300045728B
:10359000723A205052494E542046414E20455252D4
:1035A0004F52004572723A20455854522E204641DF
:1035B0004E204552524F52002F2F20616374696F85
:1035C0006E3A726573756D6564004D373032004D2B
:1035D000373031004D373032004D37303100464CF6
:1035E0004558202D20203234302F353000505020C7
:1035F00020202D20203235342F31303000484950E2
:1036000053202D20203232302F31303000414253B0
:1036100020202D20203235352F31303000415341CC
:1036200020202D20203236302F31303500504554A7
:1036300020202D20203233302F383500504C4120AF
:10364000202D20203231352F3630006E6F7A7A6C83
:1036500065202D20203235302F30006661726D20BC
:1036600020202D20203235302F383000252D3132CA
:103670002E313253252B382E316600457874727501
:103680006465723A006D6D0059005800583A00594F
:103690003A005A3A002563252D31332E3133532514
:1036A0002B352E336600746F20756E6C6F6164204D
:1036B00066696C616D656E7400746F206C6F616417
:1036C0002066696C616D656E74005072657373205D
:1036D000746865206B6E6F62003E43616E63656C5B
:1036E0000050726568656174696E6720746F20634D
:1036F00075740050726568656174696E6720746FD7
:1037000020656A6563740050726568656174696EEE
:103710006720746F20756E6C6F616400507265680D
:10372000656174696E6720746F206C6F616400431B
:103730006F6F6C646F776E0050726568656174209E
:10374000746865206E6F7A7A6C6521004552524F1D
:10375000523A0046696C616D656E742065787472CA
:103760007564696E672026207769746820636F72BC
:103770007265637420636F6C6F723F004175746F84
:103780006C6F6164696E672066696C616D656E74EB
:10379000206973206163746976652C206A7573747F
:1037A00020707265737320746865206B6E6F622081
:1037B000616E6420696E736572742066696C616DF8
:1037C000656E742E2E2E005072696E742074696DB1
:1037D000650046696C616D656E7420757365640083
:1037E000546F74616C207072696E742074696D65B9
:1037F00000546F74616C2066696C616D656E740055
:103800005269676874004C65667400592064697376
:1038100074616E63652066726F6D206D696E005312
:10382000657665726520736B65773A00536C6967DE
:10383000687420736B65773A004D656173757265C6
:103840006420736B6577005B303B305D20706F697F
:103850006E74206F66667365740041646A75737474
:10386000696E67205A3A005265736574005265614B
:10387000722073696465205B756D5D0046726F6EC2
:103880007420736964655B756D5D00526967687467
:1038900020736964655B756D5D004C6566742073AB
:1038A000696465205B756D5D005365742074656D9A
:1038B00070657261747572653A0025533A0A253154
:1038C000382E32666D200A25533A0A2531306C6451
:1038D00068202530326868646D202530326868645D
:1038E000730025533A0A2531382E32666D200A2599
:1038F000533A0A2531306C6464202530326868649C
:1039000068202530326868646D0025362E32666D79
:103910006D0025533A0A25530A25533A0A25533A8E
:103920000025332E3266010025533A0A25530A2515
:103930002D31352E31355325332E3266010A252D92
:1039400031352E31355325332E326601004738305C
:10395000004D3435004D3435205A00473736005776
:10396000697A6172642073746174653A2025640A0F
:10397000004673656E736F72204465746563746985
:103980006F6E0044697361626C65206661726D20C0
:103990006D6F6465004661726D206E756D62657253
:1039A000004D38340043616C696272617465005384
:1039B0006865657420252E37730A5A206F66667312
:1039C00065743A20252B312E3366206D6D0A2563F0
:1039D000436F6E74696E75650A2563537461727402
:1039E0002066726F6D207A65726F00506C6561732E
:1039F00065206C6F61642066696C616D656E742012
:103A000066697273742E0049732066696C616D6516
:103A10006E74206C6F616465643F0043616E636522
:103A20006C0046696C616D656E740053656C65630E
:103A3000742066696C616D656E743A0052756E6EC5
:103A4000696E672057697A6172642077696C6C20AF
:103A500064656C6574652063757272656E7420634D
:103A6000616C6962726174696F6E20726573756CE6
:103A7000747320616E642073746172742066726F57
:103A80006D2074686520626567696E6E696E672E69
:103A900020436F6E74696E75653F0050726568658E
:103AA0006174696E67206E6F7A7A6C652E20506C37
:103AB0006561736520776169742E004C6F6164697C
:103AC0006E672066696C616D656E7400506C65612F
:103AD000736520696E736572742066696C616D65CB
:103AE0006E7420696E746F207468652065787472D6
:103AF000756465722C207468656E207072657373CE
:103B000020746865206B6E6F6220746F206C6F612B
:103B1000642069742E00506C6561736520696E7352
:103B20006572742066696C616D656E7420696E746F
:103B30006F2074686520666972737420747562659D
:103B4000206F6620746865204D4D552C2074686583
:103B50006E20707265737320746865206B6E6F627F
:103B600020746F206C6F61642069742E0054686546
:103B7000207072696E7465722077696C6C20737442
:103B8000617274207072696E74696E672061207A48
:103B900069672D7A6167206C696E652E20526F749B
:103BA00061746520746865206B6E6F6220756E7439
:103BB000696C20796F75207265616368207468652F
:103BC000206F7074696D616C206865696768742E18
:103BD00020436865636B2074686520706963747541
:103BE00072657320696E207468652068616E646216
:103BF0006F6F6B202843616C6962726174696F6ECC
:103C00002063686170746572292E0053656C65636A
:103C1000742074656D706572617475726520776863
:103C2000696368206D61746368657320796F75726C
:103C3000206D6174657269616C2E0043686F6F73EB
:103C40006520612066696C616D656E7420666F72B7
:103C500020746865204669727374204C61796572BE
:103C60002043616C6962726174696F6E20616E6479
:103C70002073656C65637420697420696E207468B4
:103C800065206F6E2D73637265656E206D656E7550
:103C90002E004E6F7720492077696C6C2063616C31
:103CA0006962726174652064697374616E63652012
:103CB0006265747765656E20746970206F66207424
:103CC0006865206E6F7A7A6C6520616E6420686525
:103CD000617462656420737572666163652E005954
:103CE0006F752063616E20616C77617973207265F6
:103CF00073756D65207468652057697A61726420F8
:103D000066726F6D2043616C6962726174696F6E77
:103D1000202D3E2057697A6172642E00506C6561D7
:103D2000736520636865636B206F75722068616ED0
:103D300064626F6F6B20616E6420666978207468BE
:103D4000652070726F626C656D2E205468656E2000
:103D5000726573756D65207468652057697A617244
:103D600064206279207265626F6F74696E67207477
:103D70006865207072696E7465722E00416C6C20EB
:103D8000697320646F6E652E2048617070792070B1
:103D900072696E74696E672100496620796F7520BB
:103DA00068617665206164646974696F6E616C2016
:103DB000737465656C207368656574732C2063612A
:103DC0006C696272617465207468656972207072D2
:103DD000657365747320696E2053657474696E67CA
:103DE00073202D204857205365747570202D205363
:103DF0007465656C207368656574732E00506C651E
:103E000061736520636C65616E20686561746265CD
:103E10006420616E64207468656E207072657373CF
:103E200020746865206B6E6F622E00446F20796F7E
:103E3000752077616E7420746F207265706561748F
:103E4000206C617374207374657020746F207265C8
:103E500061646A7573742064697374616E6365204C
:103E60006265747765656E206E6F7A7A6C65206125
:103E70006E6420686561746265643F0053656C65BB
:103E80006374206E6F7A7A6C652070726568656104
:103E9000742074656D7065726174757265207768E1
:103EA000696368206D61746368657320796F7572EA
:103EB000206D6174657269616C2E004973206669BA
:103EC0006C616D656E74206C6F616465643F004960
:103ED000732066696C616D656E74206C6F616465DA
:103EE000643F004E6F7720492077696C6C207072B8
:103EF0006568656174206E6F7A7A6C6520666F7292
:103F000020504C412E00492077696C6C2072756EF0
:103F1000207A2063616C6962726174696F6E206ED1
:103F20006F772E004E6F772072656D6F7665207407
:103F300068652074657374207072696E742066728F
:103F40006F6D20737465656C2073686565742E00F1
:103F5000506C656173652072656D6F76652073685E
:103F6000697070696E672068656C70657273206631
:103F7000697273742E00492077696C6C2072756EBB
:103F80002078797A2063616C6962726174696F6EFE
:103F9000206E6F772E2049742077696C6C207461D5
:103FA0006B6520617070726F782E203132206D69E0
:103FB0006E732E0046697273742C20492077696CE9
:103FC0006C2072756E207468652073656C6674650C
:103FD000737420746F20636865636B206D6F7374F6
:103FE00020636F6D6D6F6E20617373656D626C79A8
:103FF0002070726F626C656D732E0048692C2049C9
:1040000020616D20796F7572204F726967696E61EA
:104010006C205072757361206933207072696E7400
:1040200065722E20576F756C6420796F75206C69EE
:104030006B65206D6520746F2067756964652079F4
:104040006F75207468726F75676820746865207377
:10405000657475702070726F636573733F00452DD2
:10406000636F72726563743A005A2D636F72726582
:1040700063743A00592D636F72726563743A005825
:104080002D636F72726563743A0053706F6F6C4A80
:104090006F696E00437574746572004669726D775E
:1040A000617265004D6F64656C005374726963746E
:1040B000005761726E004857205365747570004850
:1040C0005720536574757000436865636B73004EC9
:1040D0006F7A7A6C6520642E00537465656C20736A
:1040E0006865657473004E6F6E6500416C70686141
:1040F0006265740054696D6500536F727400466C9C
:1041000061736841697200534420636172640052B4
:10411000506920706F72740054656D702E20636159
:104120006C2E004C696E2E20636F72726563746929
:104130006F6E004D65736820626564206C657665FE
:104140006C696E670048572053657475700046614E
:104150006E7320636865636B00462E206175746F13
:104160006C6F61640044697361626C65207374658F
:104170007070657273004D6F7665206178697300A9
:1041800054656D70657261747572650057697A6106
:10419000726420656E642073746174653A202564CE
:1041A0000A004B494C4C45442E20005072696E74F5
:1041B00065722068616C7465642E206B696C6C2874
:1041C000292063616C6C656421004B494C4C3A209A
:1041D00025640A004D32323120496E76616C696483
:1041E00020657874727564657220004D3231382014
:1041F000496E76616C696420657874727564657265
:1042000020004D31303920496E76616C696420653B
:104210007874727564657220004D31303520496EB6
:1042200076616C69642065787472756465722000CB
:104230004D31303420496E76616C69642065787444
:1042400072756465722000504F5745522050414EA0
:1042500049432044455445435445440055564C4F2A
:10426000202D20656E642025640A0055564C4F5F52
:1042700054494E59202D20656E642025640A00772C
:104280006F726C6420636F6F7264696E61746573C2
:104290003A2028252E33662C20252E33662C202507
:1042A0002E3366290A0043757272656E7420706F32
:1042B00073205A5F415849533A252E33660A437595
:1042C0007272656E7420706F7320455F4158495358
:1042D0003A252E33660A004166746572207761695B
:1042E00074696E6720666F722074656D703A0A4358
:1042F000757272656E7420706F7320585F415849F3
:10430000533A252E33660A43757272656E742070B7
:104310006F7320595F415849533A252E33660A007E
:1043200020573A0020453A00543A005A206C6976EA
:10433000652061646A757374206F7574206F6620E0
:1043400072616E67652E2053657474696E672074A0
:104350006F20302E20436C69636B20746F20636F75
:104360006E74696E75652E005A206C6976652061E1
:10437000646A757374206F7574206F662072616E45
:1043800067652E2053657474696E6720746F2030E2
:104390000020423A0020453A00543A00494E543435
:1043A000007265636F7665725F6D616368696E65E3
:1043B0005F73746174655F61667465725F706F7757
:1043C00065725F70616E69632C20696E69746961E2
:1043D0006C200050525553412075766C6F00473465
:1043E000205330004D32362053256C75004D31304E
:1043F000362053004D32323020532564004731209F
:10440000462564004D383200473932204500473197
:10441000204525302E336620463237303000473174
:10442000205A2566005052555341204D424C20568B
:104430003100473120582566205925662046333003
:10444000303000506F736974696F6E2072656164FB
:104450002066726F6D20656570726F6D3A004D3227
:1044600033202573002E67636F002C20666565641A
:104470006D756C7469706C793A004665656472613B
:1044800074653A0047312045252D302E336620468D
:104490003237303000473120453520463132300048
:1044A0004D3833004D31303920532564004D3139BA
:1044B0003020532564004D313034205325640047AB
:1044C000323820582059004731205A252E33662093
:1044D00046383030005265636F766572696E6720CA
:1044E0007072696E74202020200020003E003E0083
:1044F00020003E003E0054656D70657261747572F7
:10450000652063616C6962726174696F6E206661B7
:10451000696C65642E20436F6E74696E75652077D3
:10452000697468207072657373696E67207468655A
:10453000206B6E6F622E0054656D706572617475CC
:1045400072652063616C6962726174696F6E206468
:104550006F6E652E20436F6E74696E756520776986
:104560007468207072657373696E67207468652063
:104570006B6E6F622E0054656D706572617475723A
:10458000652063616C6962726174696F6E20666137
:10459000696C65640054656D7065726174757265EF
:1045A0002063616C6962726174696F6E2069732047
:1045B00066696E697368656420616E642061637406
:1045C0006976652E2054656D702E2063616C69627A
:1045D000726174696F6E2063616E20626520646928
:1045E0007361626C656420696E206D656E75205321
:1045F000657474696E67732D3E54656D702E20630B
:10460000616C2E0049523A0046494E44413A0050EE
:10461000494E44413A0053656E736F722073746162
:104620007465004578747275646572004D6F7665C7
:10463000205A004D6F76652059004D6F76652058E1
:1046400000437261736820646574656374696F6E9A
:104650002063616E0A6265207475726E6564206FF6
:104660006E206F6E6C7920696E0A4E6F726D616C90
:10467000206D6F6465005741524E494E473A0A43D8
:104680007261736820646574656374696F6E0A642F
:10469000697361626C656420696E0A537465616C4C
:1046A0007468206D6F6465004175746F6C6F616430
:1046B000696E672066696C616D656E7420617661F4
:1046C000696C61626C65206F6E6C79207768656ECD
:1046D0002066696C616D656E742073656E736F72B0
:1046E000206973207475726E6564206F6E2E2E2E95
:1046F000004552524F523A2046696C616D656E74A6
:104700002073656E736F72206973206E6F742072F0
:104710006573706F6E64696E672C20706C65617371
:104720006520636865636B20636F6E6E6563746993
:104730006F6E2E004D6F6465206368616E67652043
:10474000696E2070726F6772657373202E2E2E0053
:104750002020300020203100773235783230636CF1
:104760005F63666D0A00773235783230636C5F655F
:104770006E7465720A0020746F6F206C6F6E672014
:10478000657874727573696F6E2070726576656E88
:104790007465640020636F6C64206578747275734F
:1047A000696F6E2070726576656E7465640047315E
:1047B000205A252D302E33662046252D302E336687
:1047C0000047312045252D302E33662046323730C4
:1047D00030004D3833000000211042206330844007
:1047E000A550C660E770088129914AA16BB18CC1C0
:1047F000ADD1CEE1EFF13112100273325222B55237
:104800009442F772D662399318837BB35AA3BDD30F
:104810009CC3FFF3DEE36224433420040114E66406
:10482000C774A44485546AA54BB528850995EEE55F
:10483000CFF5ACC58DD55336722611163006D77616
:10484000F6669556B4465BB77AA719973887DFF7AF
:10485000FEE79DD7BCC7C448E5588668A7784008DE
:10486000611802282338CCC9EDD98EE9AFF94889FF
:1048700069990AA92BB9F55AD44AB77A966A711A76
:10488000500A333A122AFDDBDCCBBFFB9EEB799B4F
:10489000588B3BBB1AABA66C877CE44CC55C222CC6
:1048A000033C600C411CAEED8FFDECCDCDDD2AAD9F
:1048B0000BBD688D499D977EB66ED55EF44E133E56
:1048C000322E511E700E9FFFBEEFDDDFFCCF1BBFEF
:1048D0003AAF599F788F8891A981CAB1EBA10CD1C9
:1048E0002DC14EF16FE18010A100C230E3200450D1
:1048F000254046706760B9839893FBA3DAB33DC344
:104900001CD37FE35EF3B1029012F322D232354220
:10491000145277625672EAB5CBA5A89589856EF5D3
:104920004FE52CD50DC5E234C324A0148104667470
:10493000476424540544DBA7FAB79987B8975FE723
:104940007EF71DC73CD7D326F2369106B0165766C0
:104950007676154634564CD96DC90EF92FE9C899AB
:10496000E9898AB9ABA94458654806782768C01810
:10497000E1088238A3287DCB5CDB3FEB1EFBF98B83
:10498000D89BBBAB9ABB754A545A376A167AF10A60
:10499000D01AB32A923A2EFD0FED6CDD4DCDAABD93
:1049A0008BADE89DC98D267C076C645C454CA23CB0
:1049B000832CE01CC10C1FEF3EFF5DCF7CDF9BAF63
:1049C000BABFD98FF89F176E367E554E745E932E00
:1049D000B23ED10EF01E7C3C3E3F2F2A225C00509E
:1049E0006C656173652077616974005072696E74DB
:1049F0002066616E3A00457874727564657220664F
:104A0000616E3A0043616C6962726174696E67201D
:104A1000686F6D6500416C6C20636F7272656374C2
:104A200020202020202000436865636B696E67208A
:104A300073656E736F72732000436865636B696E94
:104A40006720686F74656E64202000436865636B3F
:104A5000696E67206265642020202020004368651D
:104A6000636B696E67205A20617869732020004368
:104A70006865636B696E67205920617869732020CF
:104A800000436865636B696E6720582061786973BD
:104A9000202000436865636B696E6720656E6473F0
:104AA000746F7073004572726F72202D2073746181
:104AB000746963206D656D6F72792068617320621F
:104AC00065656E206F7665727772697474656E00C5
:104AD000436172642072656D6F766564005072691F
:104AE0006E746572206E6F7A7A6C65206469616D90
:104AF0006574657220646966666572732066726F9C
:104B00006D2074686520472D636F64652E20506C9E
:104B10006561736520636865636B207468652076E2
:104B2000616C756520696E2073657474696E677356
:104B30002E205072696E742063616E63656C6C65C3
:104B4000642E005072696E746572206E6F7A7A6C92
:104B500065206469616D6574657220646966666567
:104B600072732066726F6D2074686520472D636FC5
:104B700064652E20436F6E74696E75653F002D2D40
:104B80002D2D2D2D2D2D2D2D2D2D2D2D2D2D2D2D55
:104B90002D2D000000000000110A04505255534111
:104BA00033444657002079303D25640A0020783090
:104BB0003D25640A004F4B0A004552524F52206176
:104BC000643D25640A002020207A303D25640A00D7
:104BD000207A303D25640A002079303D25640A00A2
:104BE0002078303D25640A0078797A63616C5F66CD
:104BF000696E645F706F696E745F63656E74657211
:104C0000320A004E6F20307846462072656365692F
:104C10007665640053656E64696E67203078464639
:104C2000001F1F1F1F1F1F1F1F2E002E004E6F77FC
:104C30002066726573682066696C653A20004E6F65
:104C40007720646F696E672066696C653A20002280
:104C500020706F73002220706172656E743A2200BA
:104C6000535542524F5554494E452043414C4C20D8
:104C70007461726765743A22002E005344206361A8
:104C80007264206F6B006F70656E526F6F74206678
:104C900061696C656400766F6C756D652E696E690F
:104CA00074206661696C656400534420696E6974A0
:104CB000206661696C0057726974696E6720746F51
:104CC0002066696C653A200046696C652073656CE6
:104CD0006563746564002053697A653A200046690B
:104CE0006C65206F70656E65643A20007472796936
:104CF0006E6720746F2063616C6C207375622D6722
:104D0000636F64652066696C6573207769746820D9
:104D1000746F6F206D616E79206C6576656C732E93
:104D2000006F70656E206661696C65642C20466951
:104D30006C653A2000536F7274696E672066696C07
:104D4000657300536F6D652066696C6573207769C4
:104D50006C6C206E6F7420626520736F7274656472
:104D60002E204D61782E204E6F2E206F66206669B2
:104D70006C657320696E203120666F6C64657220EB
:104D8000666F7220736F7274696E67206973203169
:104D900030302E00437573746F6D005465787475F0
:104DA0007200536D6F6F74680047312059252D2EA6
:104DB00032662045252D2E33660047312058256464
:104DC0002059252D2E32662045252D2E336600666E
:104DD00073656E736F725F636865636B706F696E26
:104DE000745F7072696E740A006673656E736F72B9
:104DF0002076302E3420696E206661756C742072C6
:104E0000616E676520342E362D3556202D20756E47
:104E1000636F6E6E65637465640A006673656E73B6
:104E20006F7220696E20666F7262696464656E20BD
:104E300072616E676520312E352D3356202D20622C
:104E40006164206C657665720A00312E3000312E67
:104E50003500554E4B4E4F574E004C413130433A82
:104E6000204C696E65617220416476616E636520D5
:104E70006D6F64653A20004C413130433A20416403
:104E80006A757374656420452D4A65726B3A20001B
:104E9000000E1315110E0000000412091204000088
:104EA000001C1F11111F00000006191803130C002D
:104EB000040E1F041C000000040A0A0A0A11110E45
:104EC000001F1511151F0000000103161C0800002B
:104ED0000000110A04110A040C12120C0000000058
:104EE0002563252D31382E3138532563005B25731A
:104EF0005D2563005B25535D2563002563252D310A
:104F0000382E31385300252E3130532000256325AB
:104F10002D31382E3138732563004F6E004E2F41EE
:104F2000004F6666004D61676E65747320636F6D38
:104F3000702E005A2D70726F6265206E722E004DB9
:104F40006573680054696D656F75740044696D0020
:104F5000427269676874004175746F004D6F6465D3
:104F6000004C6576656C2044696D6D6564004C6528
:104F700076656C204272696768740046616E2073C2
:104F80007065656400426564004E6F7A7A6C6500F6
:104F900053657474696E6773005072696E74206132
:104FA000626F727465640053746F70207072696E02
:104FB000740046696C6520696E636F6D706C657412
:104FC000652E20436F6E74696E756520616E79770A
:104FD00061793F004261636B004D61696E00436817
:104FE00065636B696E6720592061786973202000C2
:104FF000436865636B696E67205820617869732028
:105000002000496E73657274207468652066696C4F
:10501000616D656E742028646F206E6F74206C6FF4
:1050200061642069742920696E746F20746865203A
:10503000657874727564657220616E642074686549
:105040006E20707265737320746865206B6E6F627A
:105050002E00566572696669636174696F6E2066B9
:1050600061696C65642C2072656D6F76652074686B
:10507000652066696C616D656E7420616E64207474
:10508000727920616761696E2E0053656E736F726D
:105090002076657269666965642C2072656D6F762D
:1050A00065207468652066696C616D656E74206E3C
:1050B0006F772E00506C6561736520756E6C6F6143
:1050C00064207468652066696C616D656E74206625
:1050D000697273742C207468656E207265706561E6
:1050E00074207468697320616374696F6E2E00495F
:1050F000732066696C616D656E74206C6F616465A8
:10510000643F002F2F20616374696F6E3A63616E94
:1051100063656C004D3234004D3233202573000539
:105120002E2E00257500593A202575202D3E202E63
:105130002E2E00257500583A202575202D3E202E54
:105140002E2E0046696C616D656E742073656E73FA
:105150006F7220626F617264206368616E676520A0
:1051600064657465637465643A2072657669736911
:105170006F6E25530A004D65617375726564206614
:10518000696C616D656E742073656E736F72206CEF
:105190006F77206C6576656C3A2025342E32665622
:1051A0000A004D656173757265642066696C616D96
:1051B000656E742073656E736F722068696768200E
:1051C0006C6576656C3A2025342E3266560A00608E
:1051D00001F4017001EA019001E001B001D601D0B3
:1051E00001CC010002C2013002B8016002AE0190A0
:1051F00002A401D0029A012003900170038601C02D
:10520000037C0130047201A004680120055E01B036
:1052100005540160064A0120074001F0073601F0FD
:10522000082C01100A2201500B1801C00C0E01506D
:105230000E04013010FA002012F0005014E600C0F5
:1052400016DC007019D200501CC800501FBE007040
:1052500022B400B025AA00F028A000202C9600302F
:105260002F8C0010328200A0347800F0366E00E0FF
:10527000386400803A5A00403B5500E03B5000F053
:105280003C4600C03D3C00603E3200E03E2800301D
:105290003F1E00503F1900703F1400A03F0F00C098
:1052A0003F0A00D03F0500E03F0000202D20496E5E
:1052B00076616C6964206578747275646572206EBD
:1052C000756D62657220210070012C01900127012B
:1052D000B0012201C0011D01F001180110021301EB
:1052E00030020E016002090190020401C002FF00B9
:1052F0000003FA004003F5008003F000D003EB0048
:105300002004E6007004E100E004DC004005D70062
:10531000C005D2004006CD00D006C8008007C300FB
:105320003008BE00F008B900C009B400B00AAF00F0
:10533000B00BAA00D00CA500000EA000500F9B00DF
:10534000C01096005012910000148C00C015870008
:10535000B0178200B0197D00D01B7800001E7300CA
:1053600040206E0090226900F024640040275F0016
:1053700090295A00E02B5500102E500020304B0091
:1053800010324600E033410090353C0010373700C2
:1053900070383200A0392D00B03A2800A03B23001D
:1053A000603C1E00103D1900903D1400103E0F009F
:1053B000703E0A00C03E0500003F000090137D00D3
:1053C000B0157800F0177300601A6E00F01C6900C9
:1053D000A01F640050225F0020255A00E0275500DE
:1053E000902A5000202D4B00A02F4600F0314100A4
:1053F00010343C00F0353700A037320020392D0042
:10540000603A2800703B2300603C1E00203D1900DC
:10541000C03D1400403E0F00A03E0A00F03E0500D3
:10542000403F0000703FFBFF903FF6FFB03FF1FFB1
:10543000C03FECFFD03FE7FFE03FE2FFF03FDDFF82
:10544000F03FD8FF20484F54454E44205448455221
:105450004D414C2052554E4157415900204845413D
:105460005442454420544845524D414C2052554EDB
:105470004157415900544845524D414C2052554ED8
:10548000415741590042454420544845524D414CF2
:105490002052554E415741590020544845524D41E4
:1054A0004C2052554E4157415920282050524548D2
:1054B00045415420484F54454E4429002054484506
:1054C000524D414C2052554E4157415920282050B1
:1054D00052454845415420484541544245442900DD
:1054E00050524548454154204552524F5200424582
:1054F000442050524548454154204552524F520095
:10550000506C6561736520726573746172740045D7
:1055100072723A204D494E54454D50003A2045781C
:10552000747275646572207377697463686564204A
:105530006F66662E204D494E54454D502074726959
:105540006767657265642021004572723A204D4993
:105550004E54454D50204245440054656D7065726F
:105560006174757265206865617465642062656444
:10557000207377697463686564206F66662E204DBA
:10558000494E54454D502074726967676572656471
:10559000202100746D63323133305F686F6D655F59
:1055A000656E74657228617865735F6D61736B3DBC
:1055B000307825303278290A00746D633231333007
:1055C0005F686F6D655F6578697420746D633231F3
:1055D00033305F73675F686F6D696E675F617865B1
:1055E000735F6D61736B3D3078253032780A00222D
:1055F000206661696C65643A204275666665722052
:1056000066756C6C21002200256920686F757273C5
:10561000202569206D696E757465730054494D4588
:105620004F55543A004D3131300046756C6C205264
:10563000582042756666657200656E717565696EA3
:1056400067202200446F6E65207072696E74696E07
:10565000672066696C65004D3131322063616C6C86
:1056600065642E20456D657267656E63792053749D
:105670006F702E005072696E7465722073746F7053
:105680007065642064756520746F206572726F7236
:10569000732E2046697820746865206572726F7277
:1056A00020616E6420757365204D39393920746F1F
:1056B00020726573746172742E202854656D706554
:1056C0007261747572652069732072657365742EDA
:1056D0002053657420697420616674657220726558
:1056E0007374617274696E6729004E6F204C696E25
:1056F00065204E756D6265722077697468206368F5
:1057000065636B73756D2C204C617374204C696EEE
:10571000653A20004E6F20436865636B73756D209A
:1057200077697468206C696E65206E756D6265724C
:105730002C204C617374204C696E653A20006368BC
:1057400065636B73756D206D69736D617463682C2F
:10575000204C617374204C696E653A20004C696E70
:1057600065204E756D626572206973206E6F7420BE
:105770004C617374204C696E65204E756D62657264
:105780002B312C204C617374204C696E653A2000DB
:1057900053544F505045442E20004D3234004D326A
:1057A00033202573006175746F25692E67002220F0
:1057B0006661696C65643A2042756666657220664A
:1057C000756C6C2100456E717565696E6720746F2C
:1057D000207468652066726F6E743A2022004572EC
:1057E000726F723A002200456E717565696E6720AE
:1057F000746F207468652066726F6E743A202200A0
:105800006563686F3A0001021020200808102040EC
:105810001020408002010201080402010102040874
:105820001020408080402010080402018004020102
:10583000804020100804020108040201010204084B
:105840001020408001020408102040801008040845
:10585000801020400440801020400480000022007E
:10586000250028002B002E0031003400020100002A
:10587000050108010B0105050505070508080808CD
:10588000020202020A0A08080404040401010101D8
:1058900001010101030303030303030304070707D3
:1058A0000C0C0C0C0C0C0C0C020202020606060678
:1058B000060606060B0B0B0B0B0B0B0B07070A0A56
:1058C0000A0A0A0A050505040404080804454550A7
:1058D000524F4D204572726F72004D494E54454DE6
:1058E0005020424544206669786564004D494E5415
:1058F000454D5020484F54454E44206669786564B4
:105900000047312058352E302045342E3020463186
:105910003030302E30004731205A302E3230204681
:10592000313030302E30004731205835352E302080
:105930004532352046313430302E30004731205941
:105940002D322E302046313030302E30004731207D
:10595000583234302E30204532352E302020463219
:105960003230302E30004739322045302E3000475B
:1059700031205A302E332046313030302E3000471F
:1059800031205835352E302045382E3020463230E3
:1059900030302E300047312058352E3020453332FC
:1059A0002E302046313830302E30004731205835E7
:1059B000352E30204533322E302046313037332ECD
:1059C00030004731204634303030004D3230342002
:1059D0005331303030004731205A3520463732308D
:1059E000302E30303000473120452D312E353030CB
:1059F00030302046323130302E3030303030004DB3
:105A000038330047393000473231004739322045BA
:105A1000302E30004731205835302059353520455B
:105A2000332E36323737330047312058323030206A
:105A30005935352045302E3439333836004731203A
:105A400058323030205937352045332E36323737EB
:105A50003300473120583530205937352045302E16
:105A600034393338360047312058353020593935EC
:105A70002045332E36323737330047312058323005
:105A800030205939352045302E34393338360047E7
:105A900031205832303020593131352045332E36BF
:105AA00032373733004731205835302059313135BE
:105AB0002045302E343933383600473120583530C0
:105AC00020593133352045332E36323737330047AE
:105AD00031205832303020593133352045302E3680
